{
  "contractName": "MoroccanDatascientistReferendum",
  "abi": [
    {
      "constant": true,
      "inputs": [],
      "name": "referendumQuestion",
      "outputs": [
        {
          "name": "",
          "type": "string"
        }
      ],
      "payable": false,
      "stateMutability": "view",
      "type": "function"
    },
    {
      "constant": true,
      "inputs": [],
      "name": "mdCtr",
      "outputs": [
        {
          "name": "",
          "type": "address"
        }
      ],
      "payable": false,
      "stateMutability": "view",
      "type": "function"
    },
    {
      "constant": true,
      "inputs": [
        {
          "name": "",
          "type": "address"
        }
      ],
      "name": "didVotes",
      "outputs": [
        {
          "name": "",
          "type": "bool"
        }
      ],
      "payable": false,
      "stateMutability": "view",
      "type": "function"
    },
    {
      "constant": true,
      "inputs": [],
      "name": "voteCount",
      "outputs": [
        {
          "name": "",
          "type": "uint256"
        }
      ],
      "payable": false,
      "stateMutability": "view",
      "type": "function"
    },
    {
      "constant": true,
      "inputs": [
        {
          "name": "",
          "type": "address"
        }
      ],
      "name": "votes",
      "outputs": [
        {
          "name": "",
          "type": "int8"
        }
      ],
      "payable": false,
      "stateMutability": "view",
      "type": "function"
    },
    {
      "inputs": [
        {
          "name": "_mdCtr",
          "type": "address"
        },
        {
          "name": "_question",
          "type": "string"
        }
      ],
      "payable": false,
      "stateMutability": "nonpayable",
      "type": "constructor"
    },
    {
      "constant": false,
      "inputs": [
        {
          "name": "_vote",
          "type": "int8"
        }
      ],
      "name": "vote",
      "outputs": [],
      "payable": false,
      "stateMutability": "nonpayable",
      "type": "function"
    }
  ],
  "bytecode": "0x608060405234801561001057600080fd5b506040516107a83803806107a88339810180604052810190808051906020019092919080518201929190505050816000806101000a81548173ffffffffffffffffffffffffffffffffffffffff021916908373ffffffffffffffffffffffffffffffffffffffff160217905550806001908051906020019061009392919061009b565b505050610140565b828054600181600116156101000203166002900490600052602060002090601f016020900481019282601f106100dc57805160ff191683800117855561010a565b8280016001018555821561010a579182015b828111156101095782518255916020019190600101906100ee565b5b509050610117919061011b565b5090565b61013d91905b80821115610139576000816000905550600101610121565b5090565b90565b6106598061014f6000396000f300608060405260043610610078576000357c0100000000000000000000000000000000000000000000000000000000900463ffffffff16806318dae1dc1461007d57806335ac50ea1461010d5780638c402ac5146101645780639bfad3fe14610194578063c6384071146101ef578063d8bff5a51461021a575b600080fd5b34801561008957600080fd5b50610092610277565b6040518080602001828103825283818151815260200191508051906020019080838360005b838110156100d25780820151818401526020810190506100b7565b50505050905090810190601f1680156100ff5780820380516001836020036101000a031916815260200191505b509250505060405180910390f35b34801561011957600080fd5b50610122610315565b604051808273ffffffffffffffffffffffffffffffffffffffff1673ffffffffffffffffffffffffffffffffffffffff16815260200191505060405180910390f35b34801561017057600080fd5b50610192600480360381019080803560000b906020019092919050505061033a565b005b3480156101a057600080fd5b506101d5600480360381019080803573ffffffffffffffffffffffffffffffffffffffff1690602001909291905050506105e7565b604051808215151515815260200191505060405180910390f35b3480156101fb57600080fd5b50610204610607565b6040518082815260200191505060405180910390f35b34801561022657600080fd5b5061025b600480360381019080803573ffffffffffffffffffffffffffffffffffffffff16906020019092919050505061060d565b604051808260000b60000b815260200191505060405180910390f35b60018054600181600116156101000203166002900480601f01602080910402602001604051908101604052809291908181526020018280546001816001161561010002031660029004801561030d5780601f106102e25761010080835404028352916020019161030d565b820191906000526020600020905b8154815290600101906020018083116102f057829003601f168201915b505050505081565b6000809054906101000a900473ffffffffffffffffffffffffffffffffffffffff1681565b6000809054906101000a900473ffffffffffffffffffffffffffffffffffffffff1673ffffffffffffffffffffffffffffffffffffffff166308ae4b0c336040518263ffffffff167c0100000000000000000000000000000000000000000000000000000000028152600401808273ffffffffffffffffffffffffffffffffffffffff1673ffffffffffffffffffffffffffffffffffffffff168152602001915050602060405180830381600087803b1580156103f657600080fd5b505af115801561040a573d6000803e3d6000fd5b505050506040513d602081101561042057600080fd5b810190808051906020019092919050505015156104cb576040517f08c379a00000000000000000000000000000000000000000000000000000000081526004018080602001828103825260258152602001807f4f6e6c79206d656d626572732061726520616c6c6f77656420746f2063616c6c81526020017f207468697300000000000000000000000000000000000000000000000000000081525060400191505060405180910390fd5b600360003373ffffffffffffffffffffffffffffffffffffffff1673ffffffffffffffffffffffffffffffffffffffff16815260200190815260200160002060009054906101000a900460ff161515610531576004600081548092919060010191905055505b80600260003373ffffffffffffffffffffffffffffffffffffffff1673ffffffffffffffffffffffffffffffffffffffff16815260200190815260200160002060006101000a81548160ff021916908360000b60ff1602179055506001600360003373ffffffffffffffffffffffffffffffffffffffff1673ffffffffffffffffffffffffffffffffffffffff16815260200190815260200160002060006101000a81548160ff02191690831515021790555050565b60036020528060005260406000206000915054906101000a900460ff1681565b60045481565b60026020528060005260406000206000915054906101000a900460000b815600a165627a7a72305820de3e992420c76468948428014f5b308ced0a46eca9aac939c8630afcd20db86b0029",
  "source": "pragma solidity ^0.4.23;\n\ncontract MoroccanDatascientistOrg {\n    \n    mapping (address => bool) public members;\n    uint public membersCount;\n    address public owner;\n    \n    constructor() public {\n        owner = msg.sender;\n        members[msg.sender] = true;\n        membersCount = 1;\n    }\n    \n    modifier onlyOwner() {\n        require(\n            msg.sender == owner,\n            \"Only owner is allowed to call this\"\n        );\n        _;\n    }\n    \n    modifier onlymembers() {\n        require(\n            members[msg.sender],\n            \"Only members are allowed to call this\"\n        );\n        _;\n    }\n    \n    /// Propose $(_cooptedMember) to be a part of the organization\n    function cooptMember(address _cooptCtr) public {\n        MoroccanDatascientistCooptation mdCooptCtr = \n            MoroccanDatascientistCooptation(_cooptCtr);\n        require(\n            mdCooptCtr.mdCtr() == this, \n            \"Invalid CooptationContract reference to MoroccanContract\");\n        require(\n            mdCooptCtr.cooptationCount() > membersCount/2,\n            \"Insufficient number of member cooptations\");\n        members[mdCooptCtr.cooptedMember()] = true;\n        membersCount ++;\n    }\n    \n    /// Check if I am a member (same as calling members public variable)\n    function amIMember() public view returns (bool) {\n        return members[msg.sender];\n    }\n    \n}\n\ncontract MoroccanDatascientistCooptation {\n    \n    MoroccanDatascientistOrg public mdCtr;\n\n    address public cooptedMember;\n    mapping (address => bool) cooptations;\n    uint public cooptationCount;\n    \n    constructor(address _mdCtr) public {\n        cooptedMember = msg.sender;\n        mdCtr = MoroccanDatascientistOrg(_mdCtr); \n    }\n    \n    modifier onlyMDMembers() {\n        require(\n            mdCtr.members(msg.sender),\n            \"Only members are allowed to call this\"\n        );\n        _;\n    }\n    \n    /// Propose $(_cooptedMember) to be a part of the organization\n    function cooptMember() public onlyMDMembers returns (bool) {\n        if (cooptations[msg.sender]) {\n            return false;\n        }\n        cooptations[msg.sender] = true;\n        cooptationCount ++;\n        return true;\n    }\n}\n\ncontract MoroccanDatascientistReferendum {\n    \n    MoroccanDatascientistOrg public mdCtr;\n\n    string public referendumQuestion;\n    mapping (address => int8) public votes;\n    mapping (address => bool) public didVotes;\n    uint public voteCount;\n    \n    constructor(address _mdCtr, string _question) public {\n        mdCtr = MoroccanDatascientistOrg(_mdCtr); \n        referendumQuestion = _question;\n    }\n    \n    modifier onlyMDMembers() {\n        require(\n            mdCtr.members(msg.sender),\n            \"Only members are allowed to call this\"\n        );\n        _;\n    }\n    \n    /// Vote  $(_vote) -1 for No, 0 for abstention, 1 for Yes\n    /// Other votes will be considered invalids :)\n    function vote(int8 _vote) public onlyMDMembers {\n        if (!didVotes[msg.sender]) {\n            voteCount ++;\n        }\n        votes[msg.sender] = _vote;\n        didVotes[msg.sender] = true;\n    }\n}",
  "sourcePath": "/home/issam/git/moroccan.datascientist/web/sol/truffle/contracts/MDCtr.sol",
  "compiler": {
    "name": "solc",
    "version": "0.4.24+commit.e67f0147.Emscripten.clang"
  },
  "schemaVersion": "2.0.0",
  "updatedAt": "2018-05-24T00:16:07.931Z"
}