{
  "contractName": "AssociationOrg",
  "abi": [
    {
      "inputs": [
        {
          "internalType": "string",
          "name": "_name",
          "type": "string"
        }
      ],
      "stateMutability": "nonpayable",
      "type": "constructor"
    },
    {
      "inputs": [],
      "name": "maintenanceMode",
      "outputs": [
        {
          "internalType": "bool",
          "name": "",
          "type": "bool"
        }
      ],
      "stateMutability": "view",
      "type": "function"
    },
    {
      "inputs": [
        {
          "internalType": "address",
          "name": "",
          "type": "address"
        }
      ],
      "name": "members",
      "outputs": [
        {
          "internalType": "bool",
          "name": "",
          "type": "bool"
        }
      ],
      "stateMutability": "view",
      "type": "function"
    },
    {
      "inputs": [],
      "name": "membersCount",
      "outputs": [
        {
          "internalType": "uint256",
          "name": "",
          "type": "uint256"
        }
      ],
      "stateMutability": "view",
      "type": "function"
    },
    {
      "inputs": [],
      "name": "name",
      "outputs": [
        {
          "internalType": "string",
          "name": "",
          "type": "string"
        }
      ],
      "stateMutability": "view",
      "type": "function"
    },
    {
      "inputs": [],
      "name": "owner",
      "outputs": [
        {
          "internalType": "address payable",
          "name": "",
          "type": "address"
        }
      ],
      "stateMutability": "view",
      "type": "function"
    },
    {
      "inputs": [
        {
          "internalType": "uint256",
          "name": "",
          "type": "uint256"
        }
      ],
      "name": "referendums",
      "outputs": [
        {
          "internalType": "string",
          "name": "",
          "type": "string"
        }
      ],
      "stateMutability": "view",
      "type": "function"
    },
    {
      "inputs": [
        {
          "internalType": "address",
          "name": "",
          "type": "address"
        }
      ],
      "name": "seenAdmins",
      "outputs": [
        {
          "internalType": "bool",
          "name": "",
          "type": "bool"
        }
      ],
      "stateMutability": "view",
      "type": "function"
    },
    {
      "inputs": [],
      "name": "switchMaintenanceMode",
      "outputs": [],
      "stateMutability": "nonpayable",
      "type": "function"
    },
    {
      "inputs": [
        {
          "internalType": "address payable",
          "name": "_adminCtr",
          "type": "address"
        }
      ],
      "name": "handleCooptationAction",
      "outputs": [],
      "stateMutability": "nonpayable",
      "type": "function"
    },
    {
      "inputs": [
        {
          "internalType": "address payable",
          "name": "_adminCtr",
          "type": "address"
        }
      ],
      "name": "handleMemberbanAction",
      "outputs": [],
      "stateMutability": "nonpayable",
      "type": "function"
    },
    {
      "inputs": [
        {
          "internalType": "address payable",
          "name": "_adminCtr",
          "type": "address"
        }
      ],
      "name": "handleOwnerchangeAction",
      "outputs": [],
      "stateMutability": "nonpayable",
      "type": "function"
    },
    {
      "inputs": [
        {
          "internalType": "address payable",
          "name": "_adminCtr",
          "type": "address"
        }
      ],
      "name": "handleSelfdestructAction",
      "outputs": [],
      "stateMutability": "nonpayable",
      "type": "function"
    },
    {
      "inputs": [
        {
          "internalType": "address payable",
          "name": "_adminCtr",
          "type": "address"
        }
      ],
      "name": "handleReferendumAction",
      "outputs": [],
      "stateMutability": "nonpayable",
      "type": "function"
    },
    {
      "inputs": [],
      "name": "amIMember",
      "outputs": [
        {
          "internalType": "bool",
          "name": "",
          "type": "bool"
        }
      ],
      "stateMutability": "view",
      "type": "function"
    },
    {
      "inputs": [
        {
          "internalType": "address",
          "name": "_address",
          "type": "address"
        }
      ],
      "name": "getScore",
      "outputs": [
        {
          "internalType": "uint256",
          "name": "",
          "type": "uint256"
        }
      ],
      "stateMutability": "view",
      "type": "function"
    },
    {
      "inputs": [
        {
          "internalType": "uint256",
          "name": "index",
          "type": "uint256"
        }
      ],
      "name": "getReferendum",
      "outputs": [
        {
          "internalType": "string",
          "name": "",
          "type": "string"
        }
      ],
      "stateMutability": "view",
      "type": "function"
    },
    {
      "inputs": [],
      "name": "getReferendumsCount",
      "outputs": [
        {
          "internalType": "uint256",
          "name": "",
          "type": "uint256"
        }
      ],
      "stateMutability": "view",
      "type": "function"
    }
  ],
  "bytecode": "0x60806040523480156200001157600080fd5b50604051620031fd380380620031fd833981810160405260208110156200003757600080fd5b81019080805160405193929190846401000000008211156200005857600080fd5b838201915060208201858111156200006f57600080fd5b82518660018202830111640100000000821117156200008d57600080fd5b8083526020830192505050908051906020019080838360005b83811015620000c3578082015181840152602081019050620000a6565b50505050905090810190601f168015620000f15780820380516001836020036101000a031916815260200191505b5060405250505033600560006101000a81548173ffffffffffffffffffffffffffffffffffffffff021916908373ffffffffffffffffffffffffffffffffffffffff16021790555060016000803373ffffffffffffffffffffffffffffffffffffffff1673ffffffffffffffffffffffffffffffffffffffff16815260200190815260200160002060006101000a81548160ff021916908315150217905550605a600260003373ffffffffffffffffffffffffffffffffffffffff1673ffffffffffffffffffffffffffffffffffffffff168152602001908152602001600020819055508060069080519060200190620001ed92919062000241565b5043600360003373ffffffffffffffffffffffffffffffffffffffff1673ffffffffffffffffffffffffffffffffffffffff16815260200190815260200160002081905550600160048190555050620002e7565b828054600181600116156101000203166002900490600052602060002090601f016020900481019282601f106200028457805160ff1916838001178555620002b5565b82800160010185558215620002b5579182015b82811115620002b457825182559160200191906001019062000297565b5b509050620002c49190620002c8565b5090565b5b80821115620002e3576000816000905550600101620002c9565b5090565b612f0680620002f76000396000f3fe608060405234801561001057600080fd5b506004361061010b5760003560e01c80634c87b7c8116100a25780639841477211610071578063984147721461046a578063b2636a50146104ae578063b58ad48614610555578063d47875d014610599578063fdea6c57146105f15761010b565b80634c87b7c81461039057806362535f15146103d45780637d90a580146104185780638da5cb5b146104365761010b565b8063297f9af0116100de578063297f9af0146102b457806333823e41146102d25780633bdcab5b1461032c578063453c62521461034c5761010b565b806306fdde031461011057806308ae4b0c1461019357806316797a46146101ed57806325dce0a614610294575b600080fd5b6101186105fb565b6040518080602001828103825283818151815260200191508051906020019080838360005b8381101561015857808201518184015260208101905061013d565b50505050905090810190601f1680156101855780820380516001836020036101000a031916815260200191505b509250505060405180910390f35b6101d5600480360360208110156101a957600080fd5b81019080803573ffffffffffffffffffffffffffffffffffffffff169060200190929190505050610699565b60405180821515815260200191505060405180910390f35b6102196004803603602081101561020357600080fd5b81019080803590602001909291905050506106b9565b6040518080602001828103825283818151815260200191508051906020019080838360005b8381101561025957808201518184015260208101905061023e565b50505050905090810190601f1680156102865780820380516001836020036101000a031916815260200191505b509250505060405180910390f35b61029c610772565b60405180821515815260200191505060405180910390f35b6102bc610785565b6040518082815260200191505060405180910390f35b610314600480360360208110156102e857600080fd5b81019080803573ffffffffffffffffffffffffffffffffffffffff16906020019092919050505061078b565b60405180821515815260200191505060405180910390f35b6103346107ab565b60405180821515815260200191505060405180910390f35b61038e6004803603602081101561036257600080fd5b81019080803573ffffffffffffffffffffffffffffffffffffffff1690602001909291905050506107fe565b005b6103d2600480360360208110156103a657600080fd5b81019080803573ffffffffffffffffffffffffffffffffffffffff169060200190929190505050610e0e565b005b610416600480360360208110156103ea57600080fd5b81019080803573ffffffffffffffffffffffffffffffffffffffff169060200190929190505050611288565b005b610420611ac9565b6040518082815260200191505060405180910390f35b61043e611ad6565b604051808273ffffffffffffffffffffffffffffffffffffffff16815260200191505060405180910390f35b6104ac6004803603602081101561048057600080fd5b81019080803573ffffffffffffffffffffffffffffffffffffffff169060200190929190505050611afc565b005b6104da600480360360208110156104c457600080fd5b81019080803590602001909291905050506122b9565b6040518080602001828103825283818151815260200191508051906020019080838360005b8381101561051a5780820151818401526020810190506104ff565b50505050905090810190601f1680156105475780820380516001836020036101000a031916815260200191505b509250505060405180910390f35b6105976004803603602081101561056b57600080fd5b81019080803573ffffffffffffffffffffffffffffffffffffffff169060200190929190505050612372565b005b6105db600480360360208110156105af57600080fd5b81019080803573ffffffffffffffffffffffffffffffffffffffff169060200190929190505050612b17565b6040518082815260200191505060405180910390f35b6105f9612c75565b005b60068054600181600116156101000203166002900480601f0160208091040260200160405190810160405280929190818152602001828054600181600116156101000203166002900480156106915780601f1061066657610100808354040283529160200191610691565b820191906000526020600020905b81548152906001019060200180831161067457829003601f168201915b505050505081565b60006020528060005260406000206000915054906101000a900460ff1681565b6060600782815481106106c857fe5b906000526020600020018054600181600116156101000203166002900480601f0160208091040260200160405190810160405280929190818152602001828054600181600116156101000203166002900480156107665780601f1061073b57610100808354040283529160200191610766565b820191906000526020600020905b81548152906001019060200180831161074957829003601f168201915b50505050509050919050565b600560149054906101000a900460ff1681565b60045481565b60016020528060005260406000206000915054906101000a900460ff1681565b60008060003373ffffffffffffffffffffffffffffffffffffffff1673ffffffffffffffffffffffffffffffffffffffff16815260200190815260200160002060009054906101000a900460ff16905090565b600560149054906101000a900460ff1615610881576040517f08c379a000000000000000000000000000000000000000000000000000000000815260040180806020018281038252601a8152602001807f4d61696e74656e616e6365206d6f64652061637469766174656400000000000081525060200191505060405180910390fd5b600081905060048081111561089257fe5b8173ffffffffffffffffffffffffffffffffffffffff16632fd415b26040518163ffffffff1660e01b815260040160206040518083038186803b1580156108d857600080fd5b505afa1580156108ec573d6000803e3d6000fd5b505050506040513d602081101561090257600080fd5b8101908080519060200190929190505050600481111561091e57fe5b14610991576040517f08c379a000000000000000000000000000000000000000000000000000000000815260040180806020018281038252601a8152602001807f5265666572656e64756d20616374696f6e20726571756972656400000000000081525060200191505060405180910390fd5b3073ffffffffffffffffffffffffffffffffffffffff168173ffffffffffffffffffffffffffffffffffffffff16638dddafba6040518163ffffffff1660e01b815260040160206040518083038186803b1580156109ee57600080fd5b505afa158015610a02573d6000803e3d6000fd5b505050506040513d6020811015610a1857600080fd5b810190808051906020019092919050505073ffffffffffffffffffffffffffffffffffffffff1614610a95576040517f08c379a000000000000000000000000000000000000000000000000000000000815260040180806020018281038252603c815260200180612e52603c913960400191505060405180910390fd5b600260045481610aa157fe5b048173ffffffffffffffffffffffffffffffffffffffff1663c63840716040518163ffffffff1660e01b815260040160206040518083038186803b158015610ae857600080fd5b505afa158015610afc573d6000803e3d6000fd5b505050506040513d6020811015610b1257600080fd5b810190808051906020019092919050505011610b96576040517f08c379a000000000000000000000000000000000000000000000000000000000815260040180806020018281038252601e8152602001807f4e656564206174206c6561737420353125206f662074686520766f746573000081525060200191505060405180910390fd5b600160008373ffffffffffffffffffffffffffffffffffffffff1673ffffffffffffffffffffffffffffffffffffffff16815260200190815260200160002060009054906101000a900460ff1615610c39576040517f08c379a0000000000000000000000000000000000000000000000000000000008152600401808060200182810382526025815260200180612e2d6025913960400191505060405180910390fd5b60078173ffffffffffffffffffffffffffffffffffffffff166318dae1dc6040518163ffffffff1660e01b815260040160006040518083038186803b158015610c8157600080fd5b505afa158015610c95573d6000803e3d6000fd5b505050506040513d6000823e3d601f19601f820116820180604052506020811015610cbf57600080fd5b8101908080516040519392919084640100000000821115610cdf57600080fd5b83820191506020820185811115610cf557600080fd5b8251866001820283011164010000000082111715610d1257600080fd5b8083526020830192505050908051906020019080838360005b83811015610d46578082015181840152602081019050610d2b565b50505050905090810190601f168015610d735780820380516001836020036101000a031916815260200191505b50604052505050908060018154018082558091505060019003906000526020600020016000909190919091509080519060200190610db2929190612d47565b5060018060008473ffffffffffffffffffffffffffffffffffffffff1673ffffffffffffffffffffffffffffffffffffffff16815260200190815260200160002060006101000a81548160ff0219169083151502179055505050565b600560149054906101000a900460ff1615610e91576040517f08c379a000000000000000000000000000000000000000000000000000000000815260040180806020018281038252601a8152602001807f4d61696e74656e616e6365206d6f64652061637469766174656400000000000081525060200191505060405180910390fd5b600081905060026004811115610ea357fe5b8173ffffffffffffffffffffffffffffffffffffffff16632fd415b26040518163ffffffff1660e01b815260040160206040518083038186803b158015610ee957600080fd5b505afa158015610efd573d6000803e3d6000fd5b505050506040513d6020811015610f1357600080fd5b81019080805190602001909291905050506004811115610f2f57fe5b14610fa2576040517f08c379a000000000000000000000000000000000000000000000000000000000815260040180806020018281038252601c8152602001807f53656c66646573747275637420616374696f6e2072657175697265640000000081525060200191505060405180910390fd5b3073ffffffffffffffffffffffffffffffffffffffff168173ffffffffffffffffffffffffffffffffffffffff16638dddafba6040518163ffffffff1660e01b815260040160206040518083038186803b158015610fff57600080fd5b505afa158015611013573d6000803e3d6000fd5b505050506040513d602081101561102957600080fd5b810190808051906020019092919050505073ffffffffffffffffffffffffffffffffffffffff16146110a6576040517f08c379a000000000000000000000000000000000000000000000000000000000815260040180806020018281038252603c815260200180612e52603c913960400191505060405180910390fd5b6003600454600202816110b557fe5b048173ffffffffffffffffffffffffffffffffffffffff1663c63840716040518163ffffffff1660e01b815260040160206040518083038186803b1580156110fc57600080fd5b505afa158015611110573d6000803e3d6000fd5b505050506040513d602081101561112657600080fd5b8101908080519060200190929190505050116111aa576040517f08c379a000000000000000000000000000000000000000000000000000000000815260040180806020018281038252601f8152602001807f4e656564206174206c6561737420363625206f662074686520766f746573200081525060200191505060405180910390fd5b600160008373ffffffffffffffffffffffffffffffffffffffff1673ffffffffffffffffffffffffffffffffffffffff16815260200190815260200160002060009054906101000a900460ff161561124d576040517f08c379a0000000000000000000000000000000000000000000000000000000008152600401808060200182810382526025815260200180612e2d6025913960400191505060405180910390fd5b600560009054906101000a900473ffffffffffffffffffffffffffffffffffffffff1673ffffffffffffffffffffffffffffffffffffffff16ff5b600560149054906101000a900460ff161561130b576040517f08c379a000000000000000000000000000000000000000000000000000000000815260040180806020018281038252601a8152602001807f4d61696e74656e616e6365206d6f64652061637469766174656400000000000081525060200191505060405180910390fd5b60008190506000600481111561131d57fe5b8173ffffffffffffffffffffffffffffffffffffffff16632fd415b26040518163ffffffff1660e01b815260040160206040518083038186803b15801561136357600080fd5b505afa158015611377573d6000803e3d6000fd5b505050506040513d602081101561138d57600080fd5b810190808051906020019092919050505060048111156113a957fe5b1461141c576040517f08c379a00000000000000000000000000000000000000000000000000000000081526004018080602001828103825260198152602001807f4d656d62657262616e20616374696f6e2072657175697265640000000000000081525060200191505060405180910390fd5b3073ffffffffffffffffffffffffffffffffffffffff168173ffffffffffffffffffffffffffffffffffffffff16638dddafba6040518163ffffffff1660e01b815260040160206040518083038186803b15801561147957600080fd5b505afa15801561148d573d6000803e3d6000fd5b505050506040513d60208110156114a357600080fd5b810190808051906020019092919050505073ffffffffffffffffffffffffffffffffffffffff1614611520576040517f08c379a000000000000000000000000000000000000000000000000000000000815260040180806020018281038252603c815260200180612e52603c913960400191505060405180910390fd5b60036004548161152c57fe5b048173ffffffffffffffffffffffffffffffffffffffff1663c63840716040518163ffffffff1660e01b815260040160206040518083038186803b15801561157357600080fd5b505afa158015611587573d6000803e3d6000fd5b505050506040513d602081101561159d57600080fd5b810190808051906020019092919050505011611621576040517f08c379a000000000000000000000000000000000000000000000000000000000815260040180806020018281038252601e8152602001807f4e656564206174206c6561737420333425206f662074686520766f746573000081525060200191505060405180910390fd5b60016004541161167c576040517f08c379a0000000000000000000000000000000000000000000000000000000008152600401808060200182810382526023815260200180612e0a6023913960400191505060405180910390fd5b600560009054906101000a900473ffffffffffffffffffffffffffffffffffffffff1673ffffffffffffffffffffffffffffffffffffffff168173ffffffffffffffffffffffffffffffffffffffff16636496270f6040518163ffffffff1660e01b815260040160206040518083038186803b1580156116fb57600080fd5b505afa15801561170f573d6000803e3d6000fd5b505050506040513d602081101561172557600080fd5b810190808051906020019092919050505073ffffffffffffffffffffffffffffffffffffffff1614156117a3576040517f08c379a0000000000000000000000000000000000000000000000000000000008152600401808060200182810382526021815260200180612eb06021913960400191505060405180910390fd5b6000808273ffffffffffffffffffffffffffffffffffffffff16636496270f6040518163ffffffff1660e01b815260040160206040518083038186803b1580156117ec57600080fd5b505afa158015611800573d6000803e3d6000fd5b505050506040513d602081101561181657600080fd5b810190808051906020019092919050505073ffffffffffffffffffffffffffffffffffffffff1673ffffffffffffffffffffffffffffffffffffffff16815260200190815260200160002060009054906101000a900460ff166118e1576040517f08c379a000000000000000000000000000000000000000000000000000000000815260040180806020018281038252601d8152602001807f4d656d62657220746f2062616e206973206e6f742061206d656d62657200000081525060200191505060405180910390fd5b600160008373ffffffffffffffffffffffffffffffffffffffff1673ffffffffffffffffffffffffffffffffffffffff16815260200190815260200160002060009054906101000a900460ff1615611984576040517f08c379a0000000000000000000000000000000000000000000000000000000008152600401808060200182810382526025815260200180612e2d6025913960400191505060405180910390fd5b60008060008373ffffffffffffffffffffffffffffffffffffffff16636496270f6040518163ffffffff1660e01b815260040160206040518083038186803b1580156119cf57600080fd5b505afa1580156119e3573d6000803e3d6000fd5b505050506040513d60208110156119f957600080fd5b810190808051906020019092919050505073ffffffffffffffffffffffffffffffffffffffff1673ffffffffffffffffffffffffffffffffffffffff16815260200190815260200160002060006101000a81548160ff0219169083151502179055506004600081548092919060019003919050555060018060008473ffffffffffffffffffffffffffffffffffffffff1673ffffffffffffffffffffffffffffffffffffffff16815260200190815260200160002060006101000a81548160ff0219169083151502179055505050565b6000600780549050905090565b600560009054906101000a900473ffffffffffffffffffffffffffffffffffffffff1681565b600560149054906101000a900460ff1615611b7f576040517f08c379a000000000000000000000000000000000000000000000000000000000815260040180806020018281038252601a8152602001807f4d61696e74656e616e6365206d6f64652061637469766174656400000000000081525060200191505060405180910390fd5b600081905060016004811115611b9157fe5b8173ffffffffffffffffffffffffffffffffffffffff16632fd415b26040518163ffffffff1660e01b815260040160206040518083038186803b158015611bd757600080fd5b505afa158015611beb573d6000803e3d6000fd5b505050506040513d6020811015611c0157600080fd5b81019080805190602001909291905050506004811115611c1d57fe5b14611c90576040517f08c379a000000000000000000000000000000000000000000000000000000000815260040180806020018281038252601b8152602001807f4f776e65726368616e676520616374696f6e207265717569726564000000000081525060200191505060405180910390fd5b3073ffffffffffffffffffffffffffffffffffffffff168173ffffffffffffffffffffffffffffffffffffffff16638dddafba6040518163ffffffff1660e01b815260040160206040518083038186803b158015611ced57600080fd5b505afa158015611d01573d6000803e3d6000fd5b505050506040513d6020811015611d1757600080fd5b810190808051906020019092919050505073ffffffffffffffffffffffffffffffffffffffff1614611d94576040517f08c379a000000000000000000000000000000000000000000000000000000000815260040180806020018281038252603c815260200180612e52603c913960400191505060405180910390fd5b600260045481611da057fe5b048173ffffffffffffffffffffffffffffffffffffffff1663c63840716040518163ffffffff1660e01b815260040160206040518083038186803b158015611de757600080fd5b505afa158015611dfb573d6000803e3d6000fd5b505050506040513d6020811015611e1157600080fd5b810190808051906020019092919050505011611e95576040517f08c379a000000000000000000000000000000000000000000000000000000000815260040180806020018281038252601e8152602001807f4e656564206174206c6561737420353125206f662074686520766f746573000081525060200191505060405180910390fd5b600560009054906101000a900473ffffffffffffffffffffffffffffffffffffffff1673ffffffffffffffffffffffffffffffffffffffff168173ffffffffffffffffffffffffffffffffffffffff16636496270f6040518163ffffffff1660e01b815260040160206040518083038186803b158015611f1457600080fd5b505afa158015611f28573d6000803e3d6000fd5b505050506040513d6020811015611f3e57600080fd5b810190808051906020019092919050505073ffffffffffffffffffffffffffffffffffffffff161415611fbc576040517f08c379a0000000000000000000000000000000000000000000000000000000008152600401808060200182810382526025815260200180612de56025913960400191505060405180910390fd5b6000808273ffffffffffffffffffffffffffffffffffffffff16636496270f6040518163ffffffff1660e01b815260040160206040518083038186803b15801561200557600080fd5b505afa158015612019573d6000803e3d6000fd5b505050506040513d602081101561202f57600080fd5b810190808051906020019092919050505073ffffffffffffffffffffffffffffffffffffffff1673ffffffffffffffffffffffffffffffffffffffff16815260200190815260200160002060009054906101000a900460ff166120fa576040517f08c379a00000000000000000000000000000000000000000000000000000000081526004018080602001828103825260198152602001807f4e6577206f776e6572206973206e6f742061206d656d6265720000000000000081525060200191505060405180910390fd5b600160008373ffffffffffffffffffffffffffffffffffffffff1673ffffffffffffffffffffffffffffffffffffffff16815260200190815260200160002060009054906101000a900460ff161561219d576040517f08c379a0000000000000000000000000000000000000000000000000000000008152600401808060200182810382526025815260200180612e2d6025913960400191505060405180910390fd5b8073ffffffffffffffffffffffffffffffffffffffff16636496270f6040518163ffffffff1660e01b815260040160206040518083038186803b1580156121e357600080fd5b505afa1580156121f7573d6000803e3d6000fd5b505050506040513d602081101561220d57600080fd5b8101908080519060200190929190505050600560006101000a81548173ffffffffffffffffffffffffffffffffffffffff021916908373ffffffffffffffffffffffffffffffffffffffff16021790555060018060008473ffffffffffffffffffffffffffffffffffffffff1673ffffffffffffffffffffffffffffffffffffffff16815260200190815260200160002060006101000a81548160ff0219169083151502179055505050565b600781815481106122c657fe5b906000526020600020016000915090508054600181600116156101000203166002900480601f01602080910402602001604051908101604052809291908181526020018280546001816001161561010002031660029004801561236a5780601f1061233f5761010080835404028352916020019161236a565b820191906000526020600020905b81548152906001019060200180831161234d57829003601f168201915b505050505081565b600560149054906101000a900460ff16156123f5576040517f08c379a000000000000000000000000000000000000000000000000000000000815260040180806020018281038252601a8152602001807f4d61696e74656e616e6365206d6f64652061637469766174656400000000000081525060200191505060405180910390fd5b60008190506003600481111561240757fe5b8173ffffffffffffffffffffffffffffffffffffffff16632fd415b26040518163ffffffff1660e01b815260040160206040518083038186803b15801561244d57600080fd5b505afa158015612461573d6000803e3d6000fd5b505050506040513d602081101561247757600080fd5b8101908080519060200190929190505050600481111561249357fe5b14612506576040517f08c379a000000000000000000000000000000000000000000000000000000000815260040180806020018281038252601a8152602001807f436f6f70746174696f6e20616374696f6e20726571756972656400000000000081525060200191505060405180910390fd5b3073ffffffffffffffffffffffffffffffffffffffff168173ffffffffffffffffffffffffffffffffffffffff16638dddafba6040518163ffffffff1660e01b815260040160206040518083038186803b15801561256357600080fd5b505afa158015612577573d6000803e3d6000fd5b505050506040513d602081101561258d57600080fd5b810190808051906020019092919050505073ffffffffffffffffffffffffffffffffffffffff161461260a576040517f08c379a000000000000000000000000000000000000000000000000000000000815260040180806020018281038252603c815260200180612e52603c913960400191505060405180910390fd5b60026004548161261657fe5b048173ffffffffffffffffffffffffffffffffffffffff1663c63840716040518163ffffffff1660e01b815260040160206040518083038186803b15801561265d57600080fd5b505afa158015612671573d6000803e3d6000fd5b505050506040513d602081101561268757600080fd5b81019080805190602001909291905050501161270b576040517f08c379a000000000000000000000000000000000000000000000000000000000815260040180806020018281038252601e8152602001807f4e656564206174206c6561737420353125206f662074686520766f746573000081525060200191505060405180910390fd5b6000808273ffffffffffffffffffffffffffffffffffffffff16636496270f6040518163ffffffff1660e01b815260040160206040518083038186803b15801561275457600080fd5b505afa158015612768573d6000803e3d6000fd5b505050506040513d602081101561277e57600080fd5b810190808051906020019092919050505073ffffffffffffffffffffffffffffffffffffffff1673ffffffffffffffffffffffffffffffffffffffff16815260200190815260200160002060009054906101000a900460ff161561284a576040517f08c379a00000000000000000000000000000000000000000000000000000000081526004018080602001828103825260108152602001807f416c72656164792061206d656d6265720000000000000000000000000000000081525060200191505060405180910390fd5b60016000808373ffffffffffffffffffffffffffffffffffffffff16636496270f6040518163ffffffff1660e01b815260040160206040518083038186803b15801561289557600080fd5b505afa1580156128a9573d6000803e3d6000fd5b505050506040513d60208110156128bf57600080fd5b810190808051906020019092919050505073ffffffffffffffffffffffffffffffffffffffff1673ffffffffffffffffffffffffffffffffffffffff16815260200190815260200160002060006101000a81548160ff021916908315150217905550605a600260008373ffffffffffffffffffffffffffffffffffffffff16636496270f6040518163ffffffff1660e01b815260040160206040518083038186803b15801561296d57600080fd5b505afa158015612981573d6000803e3d6000fd5b505050506040513d602081101561299757600080fd5b810190808051906020019092919050505073ffffffffffffffffffffffffffffffffffffffff1673ffffffffffffffffffffffffffffffffffffffff1681526020019081526020016000208190555043600360008373ffffffffffffffffffffffffffffffffffffffff16636496270f6040518163ffffffff1660e01b815260040160206040518083038186803b158015612a3157600080fd5b505afa158015612a45573d6000803e3d6000fd5b505050506040513d6020811015612a5b57600080fd5b810190808051906020019092919050505073ffffffffffffffffffffffffffffffffffffffff1673ffffffffffffffffffffffffffffffffffffffff1681526020019081526020016000208190555060046000815480929190600101919050555060018060008473ffffffffffffffffffffffffffffffffffffffff1673ffffffffffffffffffffffffffffffffffffffff16815260200190815260200160002060006101000a81548160ff0219169083151502179055505050565b60008060008373ffffffffffffffffffffffffffffffffffffffff1673ffffffffffffffffffffffffffffffffffffffff16815260200190815260200160002060009054906101000a900460ff16612bd7576040517f08c379a00000000000000000000000000000000000000000000000000000000081526004018080602001828103825260148152602001807f5f616464206973206e6f742061206d656d62657200000000000000000000000081525060200191505060405180910390fd5b6000611680600360008573ffffffffffffffffffffffffffffffffffffffff1673ffffffffffffffffffffffffffffffffffffffff16815260200190815260200160002054436001010381612c2857fe5b04600260008573ffffffffffffffffffffffffffffffffffffffff1673ffffffffffffffffffffffffffffffffffffffff1681526020019081526020016000205403905080915050919050565b600560009054906101000a900473ffffffffffffffffffffffffffffffffffffffff1673ffffffffffffffffffffffffffffffffffffffff163373ffffffffffffffffffffffffffffffffffffffff1614612d1b576040517f08c379a0000000000000000000000000000000000000000000000000000000008152600401808060200182810382526022815260200180612e8e6022913960400191505060405180910390fd5b600560149054906101000a900460ff1615600560146101000a81548160ff021916908315150217905550565b828054600181600116156101000203166002900490600052602060002090601f016020900481019282601f10612d8857805160ff1916838001178555612db6565b82800160010185558215612db6579182015b82811115612db5578251825591602001919060010190612d9a565b5b509050612dc39190612dc7565b5090565b5b80821115612de0576000816000905550600101612dc8565b509056fe4e6577206f776e65722063616e6e6f74206265207468652063757272656e74206f776e657243616e27742062616e206966206f6e6c792061206f6e65206d656d626572206c656674416c72656164792061637465642061646d696e697374726174696f6e2070726f706f73616c496e76616c69642041646d696e697374726174696f6e436f6e7472616374207265666572656e636520746f204d6f726f6363616e436f6e74726163744f6e6c79206f776e657220697320616c6c6f77656420746f2063616c6c20746869734d656d62657220746f2062616e2063616e6e6f7420626520746865206f776e6572a264697066735822122056aa0e2b42f0096dbfa7de2b8788c7874e5f28a7cb1462431c4d539bec66807964736f6c63430007000033",
  "immutableReferences": {},
  "source": "// SPDX-License-Identifier: MIT\npragma solidity 0.7.0;\n\nimport \"../contracts/administration.sol\";\n\ncontract AssociationOrg {\n    \n    mapping (address => bool) public members;\n    mapping (address => bool) public seenAdmins;\n    mapping (address => uint) scores;\n    mapping (address => uint) lastScoreUpdate;\n    uint public membersCount;\n    address payable public owner;\n    bool public maintenanceMode;\n    string public name;\n    string[] public referendums;\n    \n    constructor(string memory _name) {\n        owner = msg.sender;\n        members[msg.sender] = true;\n        scores[msg.sender] = 90;\n        name = _name;\n        lastScoreUpdate[msg.sender] = block.number;\n        membersCount = 1;\n    }\n    \n    modifier onlyOwner() {\n        require(\n            msg.sender == owner,\n            \"Only owner is allowed to call this\"\n        );\n        _;\n    }\n    \n    modifier onlymembers() {\n        require(\n            members[msg.sender],\n            \"Only members are allowed to call this\"\n        );\n        _;\n    }\n\n    modifier maintenanceOff() {\n        require(!maintenanceMode, \"Maintenance mode activated\");\n        _;\n    }\n\n    /// In case of a smart contract problem, activate maintenance mode\n    function switchMaintenanceMode() public onlyOwner {\n        maintenanceMode = !maintenanceMode;\n    }\n\n    function handleCooptationAction(address payable _adminCtr) public maintenanceOff {\n        AssociationAdministrationCooptation assoAdminCtr = AssociationAdministrationCooptation(_adminCtr);\n        require(assoAdminCtr.adminAction() == AssociationAdministration.AdminAction.COOPTATION, \"Cooptation action required\");\n        require(assoAdminCtr.assoCtr() == this, \"Invalid AdministrationContract reference to MoroccanContract\");\n        require(assoAdminCtr.voteCount() > membersCount/2, \"Need at least 51% of the votes\");\n        require(!members[assoAdminCtr.proposedMember()], \"Already a member\");\n        members[assoAdminCtr.proposedMember()] = true;\n        scores[assoAdminCtr.proposedMember()] = 90;\n        lastScoreUpdate[assoAdminCtr.proposedMember()] = block.number;\n        membersCount ++;\n        seenAdmins[_adminCtr] = true;\n    }\n\n    function handleMemberbanAction(address payable _adminCtr) public maintenanceOff {\n        AssociationAdministrationMemberban assoAdminCtr = AssociationAdministrationMemberban(_adminCtr);\n        require(assoAdminCtr.adminAction() == AssociationAdministration.AdminAction.MEMBERBAN, \"Memberban action required\");\n        require(assoAdminCtr.assoCtr() == this, \"Invalid AdministrationContract reference to MoroccanContract\");\n        require(assoAdminCtr.voteCount() > membersCount/3, \"Need at least 34% of the votes\");\n        require(membersCount > 1, \"Can't ban if only a one member left\");\n        require(assoAdminCtr.proposedMember() != owner, \"Member to ban cannot be the owner\");\n        require(members[assoAdminCtr.proposedMember()], \"Member to ban is not a member\");\n        require(!seenAdmins[_adminCtr], \"Already acted administration proposal\");\n        members[assoAdminCtr.proposedMember()] = false;\n        membersCount --;\n        seenAdmins[_adminCtr] = true;\n    }\n\n    function handleOwnerchangeAction(address payable _adminCtr) public maintenanceOff {\n        AssociationAdministrationOwnerchange assoAdminCtr = AssociationAdministrationOwnerchange(_adminCtr);\n        require(assoAdminCtr.adminAction() == AssociationAdministration.AdminAction.OWNERCHANGE, \"Ownerchange action required\");\n        require(assoAdminCtr.assoCtr() == this, \"Invalid AdministrationContract reference to MoroccanContract\");\n        require(assoAdminCtr.voteCount() > membersCount/2, \"Need at least 51% of the votes\");\n        require(assoAdminCtr.proposedMember() != owner, \"New owner cannot be the current owner\");\n        require(members[assoAdminCtr.proposedMember()], \"New owner is not a member\");\n        require(!seenAdmins[_adminCtr], \"Already acted administration proposal\");\n        owner = assoAdminCtr.proposedMember();\n        seenAdmins[_adminCtr] = true;\n    }\n\n    function handleSelfdestructAction(address payable _adminCtr) public maintenanceOff {\n        AssociationAdministrationSelfdestruct assoAdminCtr = AssociationAdministrationSelfdestruct(_adminCtr);\n        require(assoAdminCtr.adminAction() == AssociationAdministration.AdminAction.SELFDESTRUCT, \"Selfdestruct action required\");\n        require(assoAdminCtr.assoCtr() == this, \"Invalid AdministrationContract reference to MoroccanContract\");\n        require(assoAdminCtr.voteCount() > (2*membersCount)/3, \"Need at least 66% of the votes \");\n        require(!seenAdmins[_adminCtr], \"Already acted administration proposal\");\n        selfdestruct(owner);\n        seenAdmins[_adminCtr] = true;\n    }\n\n    function handleReferendumAction(address payable _adminCtr) public maintenanceOff {\n        AssociationAdministrationReferendum assoAdminCtr = AssociationAdministrationReferendum(_adminCtr);\n        require(assoAdminCtr.adminAction() == AssociationAdministration.AdminAction.REFERENDUM, \"Referendum action required\");\n        require(assoAdminCtr.assoCtr() == this, \"Invalid AdministrationContract reference to MoroccanContract\");\n        require(assoAdminCtr.voteCount() > membersCount/2, \"Need at least 51% of the votes\");\n        require(!seenAdmins[_adminCtr], \"Already acted administration proposal\");\n        referendums.push(assoAdminCtr.referendumQuestion());\n        seenAdmins[_adminCtr] = true;\n    }\n    \n    /// Check if I am a member (same as calling members public variable)\n    function amIMember() public view returns (bool) {\n        return members[msg.sender];\n    }\n\n    function getScore(address _address) public view returns (uint) {\n        require(members[_address], \"_add is not a member\");\n        // score is decreasing by 1 every day (given 15 secondes ethereum block)\n        uint sc = scores[_address] - ((1 + block.number - lastScoreUpdate[_address])/5760);\n        return sc;\n    }\n\n    function getReferendum(uint index) public view returns(string memory) {\n        return referendums[index];\n    }\n\n    function getReferendumsCount() public view returns(uint) {\n        return referendums.length;\n    }\n    \n}",
  "sourcePath": "/home/issam/git/ethereum-association/sol/truffle/contracts/core.sol",
  "compiler": {
    "name": "solc",
    "version": "0.7.0+commit.9e61f92b.Emscripten.clang"
  },
  "schemaVersion": "3.2.4",
  "updatedAt": "2020-12-10T20:25:32.853Z",
  "devdoc": {
    "kind": "dev",
    "methods": {},
    "version": 1
  },
  "userdoc": {
    "kind": "user",
    "methods": {
      "amIMember()": {
        "notice": "Check if I am a member (same as calling members public variable)"
      },
      "switchMaintenanceMode()": {
        "notice": "In case of a smart contract problem, activate maintenance mode"
      }
    },
    "version": 1
  }
}